{
  "_format": "hh-sol-artifact-1",
  "contractName": "HogwartsNFT",
  "sourceName": "contracts/HogwartsNFT.sol",
  "abi": [
    {
      "inputs": [],
      "stateMutability": "nonpayable",
      "type": "constructor"
    },
    {
      "anonymous": false,
      "inputs": [
        {
          "indexed": true,
          "internalType": "address",
          "name": "owner",
          "type": "address"
        },
        {
          "indexed": true,
          "internalType": "address",
          "name": "approved",
          "type": "address"
        },
        {
          "indexed": true,
          "internalType": "uint256",
          "name": "tokenId",
          "type": "uint256"
        }
      ],
      "name": "Approval",
      "type": "event"
    },
    {
      "anonymous": false,
      "inputs": [
        {
          "indexed": true,
          "internalType": "address",
          "name": "owner",
          "type": "address"
        },
        {
          "indexed": true,
          "internalType": "address",
          "name": "operator",
          "type": "address"
        },
        {
          "indexed": false,
          "internalType": "bool",
          "name": "approved",
          "type": "bool"
        }
      ],
      "name": "ApprovalForAll",
      "type": "event"
    },
    {
      "anonymous": false,
      "inputs": [
        {
          "indexed": false,
          "internalType": "uint256",
          "name": "_fromTokenId",
          "type": "uint256"
        },
        {
          "indexed": false,
          "internalType": "uint256",
          "name": "_toTokenId",
          "type": "uint256"
        }
      ],
      "name": "BatchMetadataUpdate",
      "type": "event"
    },
    {
      "anonymous": false,
      "inputs": [
        {
          "indexed": false,
          "internalType": "uint256",
          "name": "_tokenId",
          "type": "uint256"
        }
      ],
      "name": "MetadataUpdate",
      "type": "event"
    },
    {
      "anonymous": false,
      "inputs": [
        {
          "indexed": false,
          "internalType": "uint256",
          "name": "house",
          "type": "uint256"
        },
        {
          "indexed": false,
          "internalType": "address",
          "name": "minter",
          "type": "address"
        },
        {
          "indexed": false,
          "internalType": "string",
          "name": "name",
          "type": "string"
        }
      ],
      "name": "NftMinted",
      "type": "event"
    },
    {
      "anonymous": false,
      "inputs": [
        {
          "indexed": true,
          "internalType": "address",
          "name": "previousOwner",
          "type": "address"
        },
        {
          "indexed": true,
          "internalType": "address",
          "name": "newOwner",
          "type": "address"
        }
      ],
      "name": "OwnershipTransferred",
      "type": "event"
    },
    {
      "anonymous": false,
      "inputs": [
        {
          "indexed": true,
          "internalType": "address",
          "name": "from",
          "type": "address"
        },
        {
          "indexed": true,
          "internalType": "address",
          "name": "to",
          "type": "address"
        },
        {
          "indexed": true,
          "internalType": "uint256",
          "name": "tokenId",
          "type": "uint256"
        }
      ],
      "name": "Transfer",
      "type": "event"
    },
    {
      "inputs": [
        {
          "internalType": "address",
          "name": "to",
          "type": "address"
        },
        {
          "internalType": "uint256",
          "name": "tokenId",
          "type": "uint256"
        }
      ],
      "name": "approve",
      "outputs": [],
      "stateMutability": "nonpayable",
      "type": "function"
    },
    {
      "inputs": [
        {
          "internalType": "address",
          "name": "owner",
          "type": "address"
        }
      ],
      "name": "balanceOf",
      "outputs": [
        {
          "internalType": "uint256",
          "name": "",
          "type": "uint256"
        }
      ],
      "stateMutability": "view",
      "type": "function"
    },
    {
      "inputs": [
        {
          "internalType": "uint256",
          "name": "tokenId",
          "type": "uint256"
        }
      ],
      "name": "getApproved",
      "outputs": [
        {
          "internalType": "address",
          "name": "",
          "type": "address"
        }
      ],
      "stateMutability": "view",
      "type": "function"
    },
    {
      "inputs": [
        {
          "internalType": "address",
          "name": "_user",
          "type": "address"
        }
      ],
      "name": "getHouseIndex",
      "outputs": [
        {
          "internalType": "uint256",
          "name": "",
          "type": "uint256"
        }
      ],
      "stateMutability": "view",
      "type": "function"
    },
    {
      "inputs": [
        {
          "internalType": "address",
          "name": "",
          "type": "address"
        }
      ],
      "name": "hasMinted",
      "outputs": [
        {
          "internalType": "bool",
          "name": "",
          "type": "bool"
        }
      ],
      "stateMutability": "view",
      "type": "function"
    },
    {
      "inputs": [
        {
          "internalType": "address",
          "name": "_user",
          "type": "address"
        }
      ],
      "name": "hasMintedNFT",
      "outputs": [
        {
          "internalType": "bool",
          "name": "",
          "type": "bool"
        }
      ],
      "stateMutability": "view",
      "type": "function"
    },
    {
      "inputs": [
        {
          "internalType": "address",
          "name": "owner",
          "type": "address"
        },
        {
          "internalType": "address",
          "name": "operator",
          "type": "address"
        }
      ],
      "name": "isApprovedForAll",
      "outputs": [
        {
          "internalType": "bool",
          "name": "",
          "type": "bool"
        }
      ],
      "stateMutability": "view",
      "type": "function"
    },
    {
      "inputs": [
        {
          "internalType": "address",
          "name": "recipient",
          "type": "address"
        },
        {
          "internalType": "uint256",
          "name": "house",
          "type": "uint256"
        },
        {
          "internalType": "string",
          "name": "name",
          "type": "string"
        }
      ],
      "name": "mintNFT",
      "outputs": [],
      "stateMutability": "nonpayable",
      "type": "function"
    },
    {
      "inputs": [],
      "name": "name",
      "outputs": [
        {
          "internalType": "string",
          "name": "",
          "type": "string"
        }
      ],
      "stateMutability": "view",
      "type": "function"
    },
    {
      "inputs": [],
      "name": "owner",
      "outputs": [
        {
          "internalType": "address",
          "name": "",
          "type": "address"
        }
      ],
      "stateMutability": "view",
      "type": "function"
    },
    {
      "inputs": [
        {
          "internalType": "uint256",
          "name": "tokenId",
          "type": "uint256"
        }
      ],
      "name": "ownerOf",
      "outputs": [
        {
          "internalType": "address",
          "name": "",
          "type": "address"
        }
      ],
      "stateMutability": "view",
      "type": "function"
    },
    {
      "inputs": [],
      "name": "renounceOwnership",
      "outputs": [],
      "stateMutability": "nonpayable",
      "type": "function"
    },
    {
      "inputs": [
        {
          "internalType": "address",
          "name": "",
          "type": "address"
        }
      ],
      "name": "s_addressToHouse",
      "outputs": [
        {
          "internalType": "uint256",
          "name": "",
          "type": "uint256"
        }
      ],
      "stateMutability": "view",
      "type": "function"
    },
    {
      "inputs": [
        {
          "internalType": "address",
          "name": "",
          "type": "address"
        }
      ],
      "name": "s_addressToName",
      "outputs": [
        {
          "internalType": "string",
          "name": "",
          "type": "string"
        }
      ],
      "stateMutability": "view",
      "type": "function"
    },
    {
      "inputs": [
        {
          "internalType": "uint256",
          "name": "",
          "type": "uint256"
        }
      ],
      "name": "s_requestIdToSender",
      "outputs": [
        {
          "internalType": "address",
          "name": "",
          "type": "address"
        }
      ],
      "stateMutability": "view",
      "type": "function"
    },
    {
      "inputs": [
        {
          "internalType": "address",
          "name": "from",
          "type": "address"
        },
        {
          "internalType": "address",
          "name": "to",
          "type": "address"
        },
        {
          "internalType": "uint256",
          "name": "tokenId",
          "type": "uint256"
        }
      ],
      "name": "safeTransferFrom",
      "outputs": [],
      "stateMutability": "nonpayable",
      "type": "function"
    },
    {
      "inputs": [
        {
          "internalType": "address",
          "name": "from",
          "type": "address"
        },
        {
          "internalType": "address",
          "name": "to",
          "type": "address"
        },
        {
          "internalType": "uint256",
          "name": "tokenId",
          "type": "uint256"
        },
        {
          "internalType": "bytes",
          "name": "data",
          "type": "bytes"
        }
      ],
      "name": "safeTransferFrom",
      "outputs": [],
      "stateMutability": "nonpayable",
      "type": "function"
    },
    {
      "inputs": [
        {
          "internalType": "address",
          "name": "operator",
          "type": "address"
        },
        {
          "internalType": "bool",
          "name": "approved",
          "type": "bool"
        }
      ],
      "name": "setApprovalForAll",
      "outputs": [],
      "stateMutability": "nonpayable",
      "type": "function"
    },
    {
      "inputs": [
        {
          "internalType": "bytes4",
          "name": "interfaceId",
          "type": "bytes4"
        }
      ],
      "name": "supportsInterface",
      "outputs": [
        {
          "internalType": "bool",
          "name": "",
          "type": "bool"
        }
      ],
      "stateMutability": "view",
      "type": "function"
    },
    {
      "inputs": [],
      "name": "symbol",
      "outputs": [
        {
          "internalType": "string",
          "name": "",
          "type": "string"
        }
      ],
      "stateMutability": "view",
      "type": "function"
    },
    {
      "inputs": [
        {
          "internalType": "uint256",
          "name": "tokenId",
          "type": "uint256"
        }
      ],
      "name": "tokenURI",
      "outputs": [
        {
          "internalType": "string",
          "name": "",
          "type": "string"
        }
      ],
      "stateMutability": "view",
      "type": "function"
    },
    {
      "inputs": [
        {
          "internalType": "address",
          "name": "from",
          "type": "address"
        },
        {
          "internalType": "address",
          "name": "to",
          "type": "address"
        },
        {
          "internalType": "uint256",
          "name": "tokenId",
          "type": "uint256"
        }
      ],
      "name": "transferFrom",
      "outputs": [],
      "stateMutability": "nonpayable",
      "type": "function"
    },
    {
      "inputs": [
        {
          "internalType": "address",
          "name": "newOwner",
          "type": "address"
        }
      ],
      "name": "transferOwnership",
      "outputs": [],
      "stateMutability": "nonpayable",
      "type": "function"
    }
  ],
  "bytecode": "0x6101806040526045610100818152608091829190620020d6610120398152602001604051806080016040528060458152602001620020916045913981526020016040518060800160405280604481526020016200204d6044913981526020016040518060800160405280604481526020016200211b6044913990526200008a90600d90600462000177565b503480156200009857600080fd5b506040518060400160405280600c81526020016b121bd9ddd85c9d1cc813919560a21b81525060405180604001604052806002815260200161048560f41b8152508160009081620000ea9190620002f5565b506001620000f98282620002f5565b50505062000116620001106200012160201b60201c565b62000125565b6000600c55620003c1565b3390565b600780546001600160a01b038381166001600160a01b0319831681179093556040519116919082907f8be0079c531659141344cd1fd0a4f28419497f9722a3daafe3b4186f6b6457e090600090a35050565b828054828255906000526020600020908101928215620001c2579160200282015b82811115620001c25782518290620001b19082620002f5565b509160200191906001019062000198565b50620001d0929150620001d4565b5090565b80821115620001d0576000620001eb8282620001f5565b50600101620001d4565b508054620002039062000264565b6000825580601f1062000214575050565b601f01602090049060005260206000209081019062000234919062000237565b50565b5b80821115620001d0576000815560010162000238565b634e487b7160e01b600052604160045260246000fd5b600181811c908216806200027957607f821691505b6020821081036200029a57634e487b7160e01b600052602260045260246000fd5b50919050565b601f821115620002f0576000816000526020600020601f850160051c81016020861015620002cb5750805b601f850160051c820191505b81811015620002ec57828155600101620002d7565b5050505b505050565b81516001600160401b038111156200031157620003116200024e565b620003298162000322845462000264565b84620002a0565b602080601f831160018114620003615760008415620003485750858301515b600019600386901b1c1916600185901b178555620002ec565b600085815260208120601f198616915b82811015620003925788860151825594840194600190910190840162000371565b5085821015620003b15787850151600019600388901b60f8161c191681555b5050505050600190811b01905550565b611c7c80620003d16000396000f3fe608060405234801561001057600080fd5b506004361061014d5760003560e01c806370a08231116100c3578063b88d4fde1161007c578063b88d4fde146102f8578063c87b56dd1461030b578063cd6542321461031e578063e28cb25a1461033e578063e985e9c51461036a578063f2fde38b1461037d57600080fd5b806370a0823114610288578063715018a61461029b5780638da5cb5b146102a357806395d89b41146102b4578063a22cb465146102bc578063a36f573b146102cf57600080fd5b806323b872dd1161011557806323b872dd146101e257806333975f94146101f557806338e21cce1461020857806342842e0e1461022b5780634a4b36c21461023e5780636352211e1461027557600080fd5b806301ffc9a71461015257806306fdde031461017a578063081812fc1461018f578063095ea7b3146101ba5780631e576912146101cf575b600080fd5b61016561016036600461160d565b610390565b60405190151581526020015b60405180910390f35b6101826103bb565b604051610171919061167a565b6101a261019d36600461168d565b61044d565b6040516001600160a01b039091168152602001610171565b6101cd6101c83660046116c2565b610474565b005b6101cd6101dd366004611778565b61058e565b6101cd6101f03660046117e3565b610777565b61018261020336600461181f565b6107a8565b61016561021636600461181f565b600a6020526000908152604090205460ff1681565b6101cd6102393660046117e3565b610842565b61026761024c36600461181f565b6001600160a01b031660009081526009602052604090205490565b604051908152602001610171565b6101a261028336600461168d565b61085d565b61026761029636600461181f565b6108bd565b6101cd610943565b6007546001600160a01b03166101a2565b610182610957565b6101cd6102ca36600461183a565b610966565b6101a26102dd36600461168d565b6008602052600090815260409020546001600160a01b031681565b6101cd610306366004611876565b610975565b61018261031936600461168d565b6109ad565b61026761032c36600461181f565b60096020526000908152604090205481565b61016561034c36600461181f565b6001600160a01b03166000908152600a602052604090205460ff1690565b6101656103783660046118f2565b610abd565b6101cd61038b36600461181f565b610aeb565b60006001600160e01b03198216632483248360e11b14806103b557506103b582610b64565b92915050565b6060600080546103ca90611925565b80601f01602080910402602001604051908101604052809291908181526020018280546103f690611925565b80156104435780601f1061041857610100808354040283529160200191610443565b820191906000526020600020905b81548152906001019060200180831161042657829003601f168201915b5050505050905090565b600061045882610bb4565b506000908152600460205260409020546001600160a01b031690565b600061047f8261085d565b9050806001600160a01b0316836001600160a01b0316036104f15760405162461bcd60e51b815260206004820152602160248201527f4552433732313a20617070726f76616c20746f2063757272656e74206f776e656044820152603960f91b60648201526084015b60405180910390fd5b336001600160a01b038216148061050d575061050d8133610abd565b61057f5760405162461bcd60e51b815260206004820152603d60248201527f4552433732313a20617070726f76652063616c6c6572206973206e6f7420746f60448201527f6b656e206f776e6572206f7220617070726f76656420666f7220616c6c00000060648201526084016104e8565b6105898383610c13565b505050565b610596610c81565b6001600160a01b0383166000908152600a602052604090205460ff161561060e5760405162461bcd60e51b815260206004820152602660248201527f596f75206861766520616c7265616479206d696e74656420796f757220686f756044820152651cd94813919560d21b60648201526084016104e8565b600c5461061b8482610cdb565b6106ca81600d85815481106106325761063261195f565b90600052602060002001805461064790611925565b80601f016020809104026020016040519081016040528092919081815260200182805461067390611925565b80156106c05780601f10610695576101008083540402835291602001916106c0565b820191906000526020600020905b8154815290600101906020018083116106a357829003601f168201915b5050505050610cf5565b6001600160a01b0384166000908152600960209081526040808320869055600b90915290206106f983826119c5565b506001600c600082825461070d9190611a85565b90915550506001600160a01b0384166000908152600a602052604090819020805460ff19166001179055517ffe281bcdb072dfbddfafb1763ee8ba9b91ba790715c617af593493fe865ac7379061076990859087908690611aa6565b60405180910390a150505050565b6107813382610dc0565b61079d5760405162461bcd60e51b81526004016104e890611ad9565b610589838383610e1e565b600b60205260009081526040902080546107c190611925565b80601f01602080910402602001604051908101604052809291908181526020018280546107ed90611925565b801561083a5780601f1061080f5761010080835404028352916020019161083a565b820191906000526020600020905b81548152906001019060200180831161081d57829003601f168201915b505050505081565b61058983838360405180602001604052806000815250610975565b6000818152600260205260408120546001600160a01b0316806103b55760405162461bcd60e51b8152602060048201526018602482015277115490cdcc8c4e881a5b9d985b1a59081d1bdad95b88125160421b60448201526064016104e8565b60006001600160a01b0382166109275760405162461bcd60e51b815260206004820152602960248201527f4552433732313a2061646472657373207a65726f206973206e6f7420612076616044820152683634b21037bbb732b960b91b60648201526084016104e8565b506001600160a01b031660009081526003602052604090205490565b61094b610c81565b6109556000610f8f565b565b6060600180546103ca90611925565b610971338383610fe1565b5050565b61097f3383610dc0565b61099b5760405162461bcd60e51b81526004016104e890611ad9565b6109a7848484846110af565b50505050565b60606109b882610bb4565b600082815260066020526040812080546109d190611925565b80601f01602080910402602001604051908101604052809291908181526020018280546109fd90611925565b8015610a4a5780601f10610a1f57610100808354040283529160200191610a4a565b820191906000526020600020905b815481529060010190602001808311610a2d57829003601f168201915b505050505090506000610a6860408051602081019091526000815290565b90508051600003610a7a575092915050565b815115610aac578082604051602001610a94929190611b26565b60405160208183030381529060405292505050919050565b610ab5846110e2565b949350505050565b6001600160a01b03918216600090815260056020908152604080832093909416825291909152205460ff1690565b610af3610c81565b6001600160a01b038116610b585760405162461bcd60e51b815260206004820152602660248201527f4f776e61626c653a206e6577206f776e657220697320746865207a65726f206160448201526564647265737360d01b60648201526084016104e8565b610b6181610f8f565b50565b60006001600160e01b031982166380ac58cd60e01b1480610b9557506001600160e01b03198216635b5e139f60e01b145b806103b557506301ffc9a760e01b6001600160e01b03198316146103b5565b6000818152600260205260409020546001600160a01b0316610b615760405162461bcd60e51b8152602060048201526018602482015277115490cdcc8c4e881a5b9d985b1a59081d1bdad95b88125160421b60448201526064016104e8565b600081815260046020526040902080546001600160a01b0319166001600160a01b0384169081179091558190610c488261085d565b6001600160a01b03167f8c5be1e5ebec7d5bd14f71427d1e84f3dd0314c0f7b2291e5b200ac8c7c3b92560405160405180910390a45050565b6007546001600160a01b031633146109555760405162461bcd60e51b815260206004820181905260248201527f4f776e61626c653a2063616c6c6572206973206e6f7420746865206f776e657260448201526064016104e8565b610971828260405180602001604052806000815250611156565b6000828152600260205260409020546001600160a01b0316610d705760405162461bcd60e51b815260206004820152602e60248201527f45524337323155524953746f726167653a2055524920736574206f66206e6f6e60448201526d32bc34b9ba32b73a103a37b5b2b760911b60648201526084016104e8565b6000828152600660205260409020610d8882826119c5565b506040518281527ff8e1a15aba9398e019f0b49df1a4fde98ee17ae345cb5f6b5e2c27f5033e8ce79060200160405180910390a15050565b600080610dcc8361085d565b9050806001600160a01b0316846001600160a01b03161480610df35750610df38185610abd565b80610ab55750836001600160a01b0316610e0c8461044d565b6001600160a01b031614949350505050565b826001600160a01b0316610e318261085d565b6001600160a01b031614610e575760405162461bcd60e51b81526004016104e890611b55565b6001600160a01b038216610eb95760405162461bcd60e51b8152602060048201526024808201527f4552433732313a207472616e7366657220746f20746865207a65726f206164646044820152637265737360e01b60648201526084016104e8565b610ec68383836001611189565b826001600160a01b0316610ed98261085d565b6001600160a01b031614610eff5760405162461bcd60e51b81526004016104e890611b55565b600081815260046020908152604080832080546001600160a01b03199081169091556001600160a01b0387811680865260038552838620805460001901905590871680865283862080546001019055868652600290945282852080549092168417909155905184937fddf252ad1be2c89b69c2b068fc378daa952ba7f163c4a11628f55a4df523b3ef91a4505050565b600780546001600160a01b038381166001600160a01b0319831681179093556040519116919082907f8be0079c531659141344cd1fd0a4f28419497f9722a3daafe3b4186f6b6457e090600090a35050565b816001600160a01b0316836001600160a01b0316036110425760405162461bcd60e51b815260206004820152601960248201527f4552433732313a20617070726f766520746f2063616c6c65720000000000000060448201526064016104e8565b6001600160a01b03838116600081815260056020908152604080832094871680845294825291829020805460ff191686151590811790915591519182527f17307eab39ab6107e8899845ad3d59bd9653f200f220920489ca2b5937696c31910160405180910390a3505050565b6110ba848484610e1e565b6110c6848484846111f2565b6109a75760405162461bcd60e51b81526004016104e890611b9a565b60606110ed82610bb4565b600061110460408051602081019091526000815290565b90506000815111611124576040518060200160405280600081525061114f565b8061112e846112f3565b60405160200161113f929190611b26565b6040516020818303038152906040525b9392505050565b6111608383611386565b61116d60008484846111f2565b6105895760405162461bcd60e51b81526004016104e890611b9a565b6001600160a01b03841615806111a657506001600160a01b038316155b6109a75760405162461bcd60e51b815260206004820152601860248201527f457272212054686973206973206e6f7420616c6c6f776564000000000000000060448201526064016104e8565b60006001600160a01b0384163b156112e857604051630a85bd0160e11b81526001600160a01b0385169063150b7a0290611236903390899088908890600401611bec565b6020604051808303816000875af1925050508015611271575060408051601f3d908101601f1916820190925261126e91810190611c29565b60015b6112ce573d80801561129f576040519150601f19603f3d011682016040523d82523d6000602084013e6112a4565b606091505b5080516000036112c65760405162461bcd60e51b81526004016104e890611b9a565b805181602001fd5b6001600160e01b031916630a85bd0160e11b149050610ab5565b506001949350505050565b606060006113008361151f565b600101905060008167ffffffffffffffff811115611320576113206116ec565b6040519080825280601f01601f19166020018201604052801561134a576020820181803683370190505b5090508181016020015b600019016f181899199a1a9b1b9c1cb0b131b232b360811b600a86061a8153600a850494508461135457509392505050565b6001600160a01b0382166113dc5760405162461bcd60e51b815260206004820181905260248201527f4552433732313a206d696e7420746f20746865207a65726f206164647265737360448201526064016104e8565b6000818152600260205260409020546001600160a01b0316156114415760405162461bcd60e51b815260206004820152601c60248201527f4552433732313a20746f6b656e20616c7265616479206d696e7465640000000060448201526064016104e8565b61144f600083836001611189565b6000818152600260205260409020546001600160a01b0316156114b45760405162461bcd60e51b815260206004820152601c60248201527f4552433732313a20746f6b656e20616c7265616479206d696e7465640000000060448201526064016104e8565b6001600160a01b038216600081815260036020908152604080832080546001019055848352600290915280822080546001600160a01b0319168417905551839291907fddf252ad1be2c89b69c2b068fc378daa952ba7f163c4a11628f55a4df523b3ef908290a45050565b60008072184f03e93ff9f4daa797ed6e38ed64bf6a1f0160401b831061155e5772184f03e93ff9f4daa797ed6e38ed64bf6a1f0160401b830492506040015b6d04ee2d6d415b85acef8100000000831061158a576d04ee2d6d415b85acef8100000000830492506020015b662386f26fc1000083106115a857662386f26fc10000830492506010015b6305f5e10083106115c0576305f5e100830492506008015b61271083106115d457612710830492506004015b606483106115e6576064830492506002015b600a83106103b55760010192915050565b6001600160e01b031981168114610b6157600080fd5b60006020828403121561161f57600080fd5b813561114f816115f7565b60005b8381101561164557818101518382015260200161162d565b50506000910152565b6000815180845261166681602086016020860161162a565b601f01601f19169290920160200192915050565b60208152600061114f602083018461164e565b60006020828403121561169f57600080fd5b5035919050565b80356001600160a01b03811681146116bd57600080fd5b919050565b600080604083850312156116d557600080fd5b6116de836116a6565b946020939093013593505050565b634e487b7160e01b600052604160045260246000fd5b600067ffffffffffffffff8084111561171d5761171d6116ec565b604051601f8501601f19908116603f01168101908282118183101715611745576117456116ec565b8160405280935085815286868601111561175e57600080fd5b858560208301376000602087830101525050509392505050565b60008060006060848603121561178d57600080fd5b611796846116a6565b925060208401359150604084013567ffffffffffffffff8111156117b957600080fd5b8401601f810186136117ca57600080fd5b6117d986823560208401611702565b9150509250925092565b6000806000606084860312156117f857600080fd5b611801846116a6565b925061180f602085016116a6565b9150604084013590509250925092565b60006020828403121561183157600080fd5b61114f826116a6565b6000806040838503121561184d57600080fd5b611856836116a6565b91506020830135801515811461186b57600080fd5b809150509250929050565b6000806000806080858703121561188c57600080fd5b611895856116a6565b93506118a3602086016116a6565b925060408501359150606085013567ffffffffffffffff8111156118c657600080fd5b8501601f810187136118d757600080fd5b6118e687823560208401611702565b91505092959194509250565b6000806040838503121561190557600080fd5b61190e836116a6565b915061191c602084016116a6565b90509250929050565b600181811c9082168061193957607f821691505b60208210810361195957634e487b7160e01b600052602260045260246000fd5b50919050565b634e487b7160e01b600052603260045260246000fd5b601f821115610589576000816000526020600020601f850160051c8101602086101561199e5750805b601f850160051c820191505b818110156119bd578281556001016119aa565b505050505050565b815167ffffffffffffffff8111156119df576119df6116ec565b6119f3816119ed8454611925565b84611975565b602080601f831160018114611a285760008415611a105750858301515b600019600386901b1c1916600185901b1785556119bd565b600085815260208120601f198616915b82811015611a5757888601518255948401946001909101908401611a38565b5085821015611a755787850151600019600388901b60f8161c191681555b5050505050600190811b01905550565b808201808211156103b557634e487b7160e01b600052601160045260246000fd5b8381526001600160a01b0383166020820152606060408201819052600090611ad09083018461164e565b95945050505050565b6020808252602d908201527f4552433732313a2063616c6c6572206973206e6f7420746f6b656e206f776e6560408201526c1c881bdc88185c1c1c9bdd9959609a1b606082015260800190565b60008351611b3881846020880161162a565b835190830190611b4c81836020880161162a565b01949350505050565b60208082526025908201527f4552433732313a207472616e736665722066726f6d20696e636f72726563742060408201526437bbb732b960d91b606082015260800190565b60208082526032908201527f4552433732313a207472616e7366657220746f206e6f6e20455243373231526560408201527131b2b4bb32b91034b6b83632b6b2b73a32b960711b606082015260800190565b6001600160a01b0385811682528416602082015260408101839052608060608201819052600090611c1f9083018461164e565b9695505050505050565b600060208284031215611c3b57600080fd5b815161114f816115f756fea26469706673582212207f99c2907408acf7c33082525087045788c728b65fbe79521cf73e73589c21f164736f6c63430008180033697066733a2f2f516d586a613251424b734e5739716e77396b4b66636d3235724a546f6d7741564a557258656b59464a6e567762672f526176656e636c61772e6a736f6e697066733a2f2f516d586a613251424b734e5739716e77396b4b66636d3235724a546f6d7741564a557258656b59464a6e567762672f487566666c65707566662e6a736f6e697066733a2f2f516d586a613251424b734e5739716e77396b4b66636d3235724a546f6d7741564a557258656b59464a6e567762672f4772796666696e646f722e6a736f6e697066733a2f2f516d586a613251424b734e5739716e77396b4b66636d3235724a546f6d7741564a557258656b59464a6e567762672f536c7974686572696e2e6a736f6e",
  "linkReferences": {},
  "deployedLinkReferences": {}
}